{
  "_format": "hh-sol-artifact-1",
  "contractName": "NFT",
  "sourceName": "contracts/NFT.sol",
  "abi": [
    {
      "inputs": [
        {
          "internalType": "address",
          "name": "_marketplaceAddress",
          "type": "address"
        }
      ],
      "stateMutability": "nonpayable",
      "type": "constructor"
    },
    {
      "anonymous": false,
      "inputs": [
        {
          "indexed": true,
          "internalType": "address",
          "name": "owner",
          "type": "address"
        },
        {
          "indexed": true,
          "internalType": "address",
          "name": "approved",
          "type": "address"
        },
        {
          "indexed": true,
          "internalType": "uint256",
          "name": "tokenId",
          "type": "uint256"
        }
      ],
      "name": "Approval",
      "type": "event"
    },
    {
      "anonymous": false,
      "inputs": [
        {
          "indexed": true,
          "internalType": "address",
          "name": "owner",
          "type": "address"
        },
        {
          "indexed": true,
          "internalType": "address",
          "name": "operator",
          "type": "address"
        },
        {
          "indexed": false,
          "internalType": "bool",
          "name": "approved",
          "type": "bool"
        }
      ],
      "name": "ApprovalForAll",
      "type": "event"
    },
    {
      "anonymous": false,
      "inputs": [
        {
          "indexed": true,
          "internalType": "uint256",
          "name": "tokenId",
          "type": "uint256"
        },
        {
          "indexed": false,
          "internalType": "string",
          "name": "tokenURI",
          "type": "string"
        },
        {
          "indexed": false,
          "internalType": "address",
          "name": "marketplaceAddress",
          "type": "address"
        }
      ],
      "name": "TokenMinted",
      "type": "event"
    },
    {
      "anonymous": false,
      "inputs": [
        {
          "indexed": true,
          "internalType": "address",
          "name": "from",
          "type": "address"
        },
        {
          "indexed": true,
          "internalType": "address",
          "name": "to",
          "type": "address"
        },
        {
          "indexed": true,
          "internalType": "uint256",
          "name": "tokenId",
          "type": "uint256"
        }
      ],
      "name": "Transfer",
      "type": "event"
    },
    {
      "inputs": [
        {
          "internalType": "address",
          "name": "to",
          "type": "address"
        },
        {
          "internalType": "uint256",
          "name": "tokenId",
          "type": "uint256"
        }
      ],
      "name": "approve",
      "outputs": [],
      "stateMutability": "nonpayable",
      "type": "function"
    },
    {
      "inputs": [
        {
          "internalType": "address",
          "name": "owner",
          "type": "address"
        }
      ],
      "name": "balanceOf",
      "outputs": [
        {
          "internalType": "uint256",
          "name": "",
          "type": "uint256"
        }
      ],
      "stateMutability": "view",
      "type": "function"
    },
    {
      "inputs": [
        {
          "internalType": "uint256",
          "name": "tokenId",
          "type": "uint256"
        }
      ],
      "name": "getApproved",
      "outputs": [
        {
          "internalType": "address",
          "name": "",
          "type": "address"
        }
      ],
      "stateMutability": "view",
      "type": "function"
    },
    {
      "inputs": [
        {
          "internalType": "uint256",
          "name": "tokenId",
          "type": "uint256"
        }
      ],
      "name": "getTokenCreatorById",
      "outputs": [
        {
          "internalType": "address",
          "name": "",
          "type": "address"
        }
      ],
      "stateMutability": "view",
      "type": "function"
    },
    {
      "inputs": [],
      "name": "getTokensCreatedByMe",
      "outputs": [
        {
          "internalType": "uint256[]",
          "name": "",
          "type": "uint256[]"
        }
      ],
      "stateMutability": "view",
      "type": "function"
    },
    {
      "inputs": [],
      "name": "getTokensOwnedByMe",
      "outputs": [
        {
          "internalType": "uint256[]",
          "name": "",
          "type": "uint256[]"
        }
      ],
      "stateMutability": "view",
      "type": "function"
    },
    {
      "inputs": [
        {
          "internalType": "address",
          "name": "owner",
          "type": "address"
        },
        {
          "internalType": "address",
          "name": "operator",
          "type": "address"
        }
      ],
      "name": "isApprovedForAll",
      "outputs": [
        {
          "internalType": "bool",
          "name": "",
          "type": "bool"
        }
      ],
      "stateMutability": "view",
      "type": "function"
    },
    {
      "inputs": [
        {
          "internalType": "string",
          "name": "tokenURI",
          "type": "string"
        }
      ],
      "name": "mintToken",
      "outputs": [
        {
          "internalType": "uint256",
          "name": "",
          "type": "uint256"
        }
      ],
      "stateMutability": "nonpayable",
      "type": "function"
    },
    {
      "inputs": [],
      "name": "name",
      "outputs": [
        {
          "internalType": "string",
          "name": "",
          "type": "string"
        }
      ],
      "stateMutability": "view",
      "type": "function"
    },
    {
      "inputs": [
        {
          "internalType": "uint256",
          "name": "tokenId",
          "type": "uint256"
        }
      ],
      "name": "ownerOf",
      "outputs": [
        {
          "internalType": "address",
          "name": "",
          "type": "address"
        }
      ],
      "stateMutability": "view",
      "type": "function"
    },
    {
      "inputs": [
        {
          "internalType": "address",
          "name": "from",
          "type": "address"
        },
        {
          "internalType": "address",
          "name": "to",
          "type": "address"
        },
        {
          "internalType": "uint256",
          "name": "tokenId",
          "type": "uint256"
        }
      ],
      "name": "safeTransferFrom",
      "outputs": [],
      "stateMutability": "nonpayable",
      "type": "function"
    },
    {
      "inputs": [
        {
          "internalType": "address",
          "name": "from",
          "type": "address"
        },
        {
          "internalType": "address",
          "name": "to",
          "type": "address"
        },
        {
          "internalType": "uint256",
          "name": "tokenId",
          "type": "uint256"
        },
        {
          "internalType": "bytes",
          "name": "_data",
          "type": "bytes"
        }
      ],
      "name": "safeTransferFrom",
      "outputs": [],
      "stateMutability": "nonpayable",
      "type": "function"
    },
    {
      "inputs": [
        {
          "internalType": "address",
          "name": "operator",
          "type": "address"
        },
        {
          "internalType": "bool",
          "name": "approved",
          "type": "bool"
        }
      ],
      "name": "setApprovalForAll",
      "outputs": [],
      "stateMutability": "nonpayable",
      "type": "function"
    },
    {
      "inputs": [
        {
          "internalType": "bytes4",
          "name": "interfaceId",
          "type": "bytes4"
        }
      ],
      "name": "supportsInterface",
      "outputs": [
        {
          "internalType": "bool",
          "name": "",
          "type": "bool"
        }
      ],
      "stateMutability": "view",
      "type": "function"
    },
    {
      "inputs": [],
      "name": "symbol",
      "outputs": [
        {
          "internalType": "string",
          "name": "",
          "type": "string"
        }
      ],
      "stateMutability": "view",
      "type": "function"
    },
    {
      "inputs": [
        {
          "internalType": "uint256",
          "name": "tokenId",
          "type": "uint256"
        }
      ],
      "name": "tokenURI",
      "outputs": [
        {
          "internalType": "string",
          "name": "",
          "type": "string"
        }
      ],
      "stateMutability": "view",
      "type": "function"
    },
    {
      "inputs": [
        {
          "internalType": "address",
          "name": "from",
          "type": "address"
        },
        {
          "internalType": "address",
          "name": "to",
          "type": "address"
        },
        {
          "internalType": "uint256",
          "name": "tokenId",
          "type": "uint256"
        }
      ],
      "name": "transferFrom",
      "outputs": [],
      "stateMutability": "nonpayable",
      "type": "function"
    }
  ],
  "bytecode": "0x60806040523480156200001157600080fd5b5060405162001c6238038062001c6283398101604081905262000034916200016b565b604080518082018252600b81526a25b93cb83a37a134b9323d60a91b60208083019182528351808501909452600684526525a124a9222d60d11b9084015281519192916200008591600091620000c5565b5080516200009b906001906020840190620000c5565b5050600880546001600160a01b0319166001600160a01b03939093169290921790915550620001d8565b828054620000d3906200019b565b90600052602060002090601f016020900481019282620000f7576000855562000142565b82601f106200011257805160ff191683800117855562000142565b8280016001018555821562000142579182015b828111156200014257825182559160200191906001019062000125565b506200015092915062000154565b5090565b5b8082111562000150576000815560010162000155565b6000602082840312156200017d578081fd5b81516001600160a01b038116811462000194578182fd5b9392505050565b600181811c90821680620001b057607f821691505b60208210811415620001d257634e487b7160e01b600052602260045260246000fd5b50919050565b611a7a80620001e86000396000f3fe608060405234801561001057600080fd5b506004361061010b5760003560e01c80635ba37742116100a257806395d89b411161007157806395d89b4114610240578063a22cb46514610248578063b88d4fde1461025b578063c87b56dd1461026e578063e985e9c51461028157600080fd5b80635ba37742146101e95780636352211e146101f157806370a0823114610204578063867d33971461021757600080fd5b80630a989d9c116100de5780630a989d9c1461018d57806323b872dd146101a257806333eba49a146101b557806342842e0e146101d657600080fd5b806301ffc9a71461011057806306fdde0314610138578063081812fc1461014d578063095ea7b314610178575b600080fd5b61012361011e3660046116be565b6102bd565b60405190151581526020015b60405180910390f35b61014061030f565b60405161012f9190611830565b61016061015b36600461173c565b6103a1565b6040516001600160a01b03909116815260200161012f565b61018b610186366004611695565b61042e565b005b610195610544565b60405161012f91906117ec565b61018b6101b03660046115a7565b610645565b6101c86101c33660046116f6565b610676565b60405190815260200161012f565b61018b6101e43660046115a7565b61072b565b610195610746565b6101606101ff36600461173c565b610899565b6101c861021236600461155b565b610910565b61016061022536600461173c565b6000908152600960205260409020546001600160a01b031690565b610140610997565b61018b61025636600461165b565b6109a6565b61018b6102693660046115e2565b6109b5565b61014061027c36600461173c565b6109ed565b61012361028f366004611575565b6001600160a01b03918216600090815260056020908152604080832093909416825291909152205460ff1690565b60006001600160e01b031982166380ac58cd60e01b14806102ee57506001600160e01b03198216635b5e139f60e01b145b8061030957506301ffc9a760e01b6001600160e01b03198316145b92915050565b60606000805461031e9061197f565b80601f016020809104026020016040519081016040528092919081815260200182805461034a9061197f565b80156103975780601f1061036c57610100808354040283529160200191610397565b820191906000526020600020905b81548152906001019060200180831161037a57829003601f168201915b5050505050905090565b60006103ac82610b64565b6104125760405162461bcd60e51b815260206004820152602c60248201527f4552433732313a20617070726f76656420717565727920666f72206e6f6e657860448201526b34b9ba32b73a103a37b5b2b760a11b60648201526084015b60405180910390fd5b506000908152600460205260409020546001600160a01b031690565b600061043982610899565b9050806001600160a01b0316836001600160a01b031614156104a75760405162461bcd60e51b815260206004820152602160248201527f4552433732313a20617070726f76616c20746f2063757272656e74206f776e656044820152603960f91b6064820152608401610409565b336001600160a01b03821614806104c357506104c3813361028f565b6105355760405162461bcd60e51b815260206004820152603860248201527f4552433732313a20617070726f76652063616c6c6572206973206e6f74206f7760448201527f6e6572206e6f7220617070726f76656420666f7220616c6c00000000000000006064820152608401610409565b61053f8383610b81565b505050565b6060600061055160075490565b9050600061055e33610910565b905060008167ffffffffffffffff81111561058957634e487b7160e01b600052604160045260246000fd5b6040519080825280602002602001820160405280156105b2578160200160208202803683370190505b5090506000805b8481101561063b5760006105ce826001611910565b9050336105da82610899565b6001600160a01b0316146105ee5750610629565b8084848151811061060f57634e487b7160e01b600052603260045260246000fd5b6020908102919091010152610625600184611910565b9250505b80610633816119ba565b9150506105b9565b5090949350505050565b61064f3382610bef565b61066b5760405162461bcd60e51b8152600401610409906118bf565b61053f838383610cd5565b6000610686600780546001019055565b600061069160075490565b905061069d3382610e71565b600081815260096020526040902080546001600160a01b031916331790556106c58184610fa4565b6008546106dc906001600160a01b031660016109a6565b60085460405182917f9ef9d09a98563c827f651a028105395cc17f94ef23eb26b70d241439386a62f49161071d9187916001600160a01b0390911690611843565b60405180910390a292915050565b61053f838383604051806020016040528060008152506109b5565b6060600061075360075490565b90506000805b828110156107b657600061076e826001611910565b6000818152600960205260409020549091506001600160a01b0316331461079557506107a4565b6107a0600184611910565b9250505b806107ae816119ba565b915050610759565b5060008167ffffffffffffffff8111156107e057634e487b7160e01b600052604160045260246000fd5b604051908082528060200260200182016040528015610809578160200160208202803683370190505b5090506000805b8481101561063b576000610825826001611910565b6000818152600960205260409020549091506001600160a01b0316331461084c5750610887565b8084848151811061086d57634e487b7160e01b600052603260045260246000fd5b6020908102919091010152610883600184611910565b9250505b80610891816119ba565b915050610810565b6000818152600260205260408120546001600160a01b0316806103095760405162461bcd60e51b815260206004820152602960248201527f4552433732313a206f776e657220717565727920666f72206e6f6e657869737460448201526832b73a103a37b5b2b760b91b6064820152608401610409565b60006001600160a01b03821661097b5760405162461bcd60e51b815260206004820152602a60248201527f4552433732313a2062616c616e636520717565727920666f7220746865207a65604482015269726f206164647265737360b01b6064820152608401610409565b506001600160a01b031660009081526003602052604090205490565b60606001805461031e9061197f565b6109b133838361102f565b5050565b6109bf3383610bef565b6109db5760405162461bcd60e51b8152600401610409906118bf565b6109e7848484846110fe565b50505050565b60606109f882610b64565b610a5e5760405162461bcd60e51b815260206004820152603160248201527f45524337323155524953746f726167653a2055524920717565727920666f72206044820152703737b732bc34b9ba32b73a103a37b5b2b760791b6064820152608401610409565b60008281526006602052604081208054610a779061197f565b80601f0160208091040260200160405190810160405280929190818152602001828054610aa39061197f565b8015610af05780601f10610ac557610100808354040283529160200191610af0565b820191906000526020600020905b815481529060010190602001808311610ad357829003601f168201915b505050505090506000610b0e60408051602081019091526000815290565b9050805160001415610b21575092915050565b815115610b53578082604051602001610b3b929190611780565b60405160208183030381529060405292505050919050565b610b5c84611131565b949350505050565b6000908152600260205260409020546001600160a01b0316151590565b600081815260046020526040902080546001600160a01b0319166001600160a01b0384169081179091558190610bb682610899565b6001600160a01b03167f8c5be1e5ebec7d5bd14f71427d1e84f3dd0314c0f7b2291e5b200ac8c7c3b92560405160405180910390a45050565b6000610bfa82610b64565b610c5b5760405162461bcd60e51b815260206004820152602c60248201527f4552433732313a206f70657261746f7220717565727920666f72206e6f6e657860448201526b34b9ba32b73a103a37b5b2b760a11b6064820152608401610409565b6000610c6683610899565b9050806001600160a01b0316846001600160a01b03161480610ca15750836001600160a01b0316610c96846103a1565b6001600160a01b0316145b80610b5c57506001600160a01b0380821660009081526005602090815260408083209388168352929052205460ff16610b5c565b826001600160a01b0316610ce882610899565b6001600160a01b031614610d4c5760405162461bcd60e51b815260206004820152602560248201527f4552433732313a207472616e736665722066726f6d20696e636f72726563742060448201526437bbb732b960d91b6064820152608401610409565b6001600160a01b038216610dae5760405162461bcd60e51b8152602060048201526024808201527f4552433732313a207472616e7366657220746f20746865207a65726f206164646044820152637265737360e01b6064820152608401610409565b610db9600082610b81565b6001600160a01b0383166000908152600360205260408120805460019290610de290849061193c565b90915550506001600160a01b0382166000908152600360205260408120805460019290610e10908490611910565b909155505060008181526002602052604080822080546001600160a01b0319166001600160a01b0386811691821790925591518493918716917fddf252ad1be2c89b69c2b068fc378daa952ba7f163c4a11628f55a4df523b3ef91a4505050565b6001600160a01b038216610ec75760405162461bcd60e51b815260206004820181905260248201527f4552433732313a206d696e7420746f20746865207a65726f20616464726573736044820152606401610409565b610ed081610b64565b15610f1d5760405162461bcd60e51b815260206004820152601c60248201527f4552433732313a20746f6b656e20616c7265616479206d696e746564000000006044820152606401610409565b6001600160a01b0382166000908152600360205260408120805460019290610f46908490611910565b909155505060008181526002602052604080822080546001600160a01b0319166001600160a01b03861690811790915590518392907fddf252ad1be2c89b69c2b068fc378daa952ba7f163c4a11628f55a4df523b3ef908290a45050565b610fad82610b64565b6110105760405162461bcd60e51b815260206004820152602e60248201527f45524337323155524953746f726167653a2055524920736574206f66206e6f6e60448201526d32bc34b9ba32b73a103a37b5b2b760911b6064820152608401610409565b6000828152600660209081526040909120825161053f92840190611430565b816001600160a01b0316836001600160a01b031614156110915760405162461bcd60e51b815260206004820152601960248201527f4552433732313a20617070726f766520746f2063616c6c6572000000000000006044820152606401610409565b6001600160a01b03838116600081815260056020908152604080832094871680845294825291829020805460ff191686151590811790915591519182527f17307eab39ab6107e8899845ad3d59bd9653f200f220920489ca2b5937696c31910160405180910390a3505050565b611109848484610cd5565b61111584848484611209565b6109e75760405162461bcd60e51b81526004016104099061186d565b606061113c82610b64565b6111a05760405162461bcd60e51b815260206004820152602f60248201527f4552433732314d657461646174613a2055524920717565727920666f72206e6f60448201526e3732bc34b9ba32b73a103a37b5b2b760891b6064820152608401610409565b60006111b760408051602081019091526000815290565b905060008151116111d75760405180602001604052806000815250611202565b806111e184611316565b6040516020016111f2929190611780565b6040516020818303038152906040525b9392505050565b60006001600160a01b0384163b1561130b57604051630a85bd0160e11b81526001600160a01b0385169063150b7a029061124d9033908990889088906004016117af565b602060405180830381600087803b15801561126757600080fd5b505af1925050508015611297575060408051601f3d908101601f19168201909252611294918101906116da565b60015b6112f1573d8080156112c5576040519150601f19603f3d011682016040523d82523d6000602084013e6112ca565b606091505b5080516112e95760405162461bcd60e51b81526004016104099061186d565b805181602001fd5b6001600160e01b031916630a85bd0160e11b149050610b5c565b506001949350505050565b60608161133a5750506040805180820190915260018152600360fc1b602082015290565b8160005b8115611364578061134e816119ba565b915061135d9050600a83611928565b915061133e565b60008167ffffffffffffffff81111561138d57634e487b7160e01b600052604160045260246000fd5b6040519080825280601f01601f1916602001820160405280156113b7576020820181803683370190505b5090505b8415610b5c576113cc60018361193c565b91506113d9600a866119d5565b6113e4906030611910565b60f81b81838151811061140757634e487b7160e01b600052603260045260246000fd5b60200101906001600160f81b031916908160001a905350611429600a86611928565b94506113bb565b82805461143c9061197f565b90600052602060002090601f01602090048101928261145e57600085556114a4565b82601f1061147757805160ff19168380011785556114a4565b828001600101855582156114a4579182015b828111156114a4578251825591602001919060010190611489565b506114b09291506114b4565b5090565b5b808211156114b057600081556001016114b5565b600067ffffffffffffffff808411156114e4576114e4611a15565b604051601f8501601f19908116603f0116810190828211818310171561150c5761150c611a15565b8160405280935085815286868601111561152557600080fd5b858560208301376000602087830101525050509392505050565b80356001600160a01b038116811461155657600080fd5b919050565b60006020828403121561156c578081fd5b6112028261153f565b60008060408385031215611587578081fd5b6115908361153f565b915061159e6020840161153f565b90509250929050565b6000806000606084860312156115bb578081fd5b6115c48461153f565b92506115d26020850161153f565b9150604084013590509250925092565b600080600080608085870312156115f7578081fd5b6116008561153f565b935061160e6020860161153f565b925060408501359150606085013567ffffffffffffffff811115611630578182fd5b8501601f81018713611640578182fd5b61164f878235602084016114c9565b91505092959194509250565b6000806040838503121561166d578182fd5b6116768361153f565b91506020830135801515811461168a578182fd5b809150509250929050565b600080604083850312156116a7578182fd5b6116b08361153f565b946020939093013593505050565b6000602082840312156116cf578081fd5b813561120281611a2b565b6000602082840312156116eb578081fd5b815161120281611a2b565b600060208284031215611707578081fd5b813567ffffffffffffffff81111561171d578182fd5b8201601f8101841361172d578182fd5b610b5c848235602084016114c9565b60006020828403121561174d578081fd5b5035919050565b6000815180845261176c816020860160208601611953565b601f01601f19169290920160200192915050565b60008351611792818460208801611953565b8351908301906117a6818360208801611953565b01949350505050565b6001600160a01b03858116825284166020820152604081018390526080606082018190526000906117e290830184611754565b9695505050505050565b6020808252825182820181905260009190848201906040850190845b8181101561182457835183529284019291840191600101611808565b50909695505050505050565b6020815260006112026020830184611754565b6040815260006118566040830185611754565b905060018060a01b03831660208301529392505050565b60208082526032908201527f4552433732313a207472616e7366657220746f206e6f6e20455243373231526560408201527131b2b4bb32b91034b6b83632b6b2b73a32b960711b606082015260800190565b60208082526031908201527f4552433732313a207472616e736665722063616c6c6572206973206e6f74206f6040820152701ddb995c881b9bdc88185c1c1c9bdd9959607a1b606082015260800190565b60008219821115611923576119236119e9565b500190565b600082611937576119376119ff565b500490565b60008282101561194e5761194e6119e9565b500390565b60005b8381101561196e578181015183820152602001611956565b838111156109e75750506000910152565b600181811c9082168061199357607f821691505b602082108114156119b457634e487b7160e01b600052602260045260246000fd5b50919050565b60006000198214156119ce576119ce6119e9565b5060010190565b6000826119e4576119e46119ff565b500690565b634e487b7160e01b600052601160045260246000fd5b634e487b7160e01b600052601260045260246000fd5b634e487b7160e01b600052604160045260246000fd5b6001600160e01b031981168114611a4157600080fd5b5056fea2646970667358221220ffca8ca9b4b6c52228c0fe3c2196ad382c217999b8af9a37f0a7f3c06f4ac5e664736f6c63430008040033",
  "linkReferences": {},
  "deployedLinkReferences": {}
}