{
  "_format": "hh-sol-artifact-1",
  "contractName": "KBMarket",
  "sourceName": "contracts/KBMarket.sol",
  "abi": [
    {
      "inputs": [],
      "stateMutability": "nonpayable",
      "type": "constructor"
    },
    {
      "anonymous": false,
      "inputs": [
        {
          "indexed": true,
          "internalType": "uint256",
          "name": "marketItemId",
          "type": "uint256"
        },
        {
          "indexed": true,
          "internalType": "address",
          "name": "nftContract",
          "type": "address"
        },
        {
          "indexed": true,
          "internalType": "uint256",
          "name": "tokenId",
          "type": "uint256"
        },
        {
          "indexed": false,
          "internalType": "address",
          "name": "creator",
          "type": "address"
        },
        {
          "indexed": false,
          "internalType": "address",
          "name": "seller",
          "type": "address"
        },
        {
          "indexed": false,
          "internalType": "address",
          "name": "owner",
          "type": "address"
        },
        {
          "indexed": false,
          "internalType": "uint256",
          "name": "price",
          "type": "uint256"
        },
        {
          "indexed": false,
          "internalType": "bool",
          "name": "sold",
          "type": "bool"
        },
        {
          "indexed": false,
          "internalType": "bool",
          "name": "canceled",
          "type": "bool"
        }
      ],
      "name": "MarketItemCreated",
      "type": "event"
    },
    {
      "inputs": [
        {
          "internalType": "address",
          "name": "nftContractAddress",
          "type": "address"
        },
        {
          "internalType": "uint256",
          "name": "marketItemId",
          "type": "uint256"
        }
      ],
      "name": "cancelMarketItem",
      "outputs": [],
      "stateMutability": "payable",
      "type": "function"
    },
    {
      "inputs": [
        {
          "internalType": "address",
          "name": "nftContractAddress",
          "type": "address"
        },
        {
          "internalType": "address",
          "name": "erc20ContractAddress",
          "type": "address"
        },
        {
          "internalType": "uint256",
          "name": "marketItemId",
          "type": "uint256"
        }
      ],
      "name": "createMarketSale",
      "outputs": [],
      "stateMutability": "payable",
      "type": "function"
    },
    {
      "inputs": [],
      "name": "fetchAvailableMarketItems",
      "outputs": [
        {
          "components": [
            {
              "internalType": "uint256",
              "name": "marketItemId",
              "type": "uint256"
            },
            {
              "internalType": "address",
              "name": "nftContractAddress",
              "type": "address"
            },
            {
              "internalType": "uint256",
              "name": "tokenId",
              "type": "uint256"
            },
            {
              "internalType": "address payable",
              "name": "creator",
              "type": "address"
            },
            {
              "internalType": "address payable",
              "name": "seller",
              "type": "address"
            },
            {
              "internalType": "address payable",
              "name": "owner",
              "type": "address"
            },
            {
              "internalType": "uint256",
              "name": "price",
              "type": "uint256"
            },
            {
              "internalType": "bool",
              "name": "sold",
              "type": "bool"
            },
            {
              "internalType": "bool",
              "name": "canceled",
              "type": "bool"
            }
          ],
          "internalType": "struct KBMarket.MarketItem[]",
          "name": "",
          "type": "tuple[]"
        }
      ],
      "stateMutability": "view",
      "type": "function"
    },
    {
      "inputs": [
        {
          "internalType": "string",
          "name": "_addressProperty",
          "type": "string"
        }
      ],
      "name": "fetchMarketItemsByAddressProperty",
      "outputs": [
        {
          "components": [
            {
              "internalType": "uint256",
              "name": "marketItemId",
              "type": "uint256"
            },
            {
              "internalType": "address",
              "name": "nftContractAddress",
              "type": "address"
            },
            {
              "internalType": "uint256",
              "name": "tokenId",
              "type": "uint256"
            },
            {
              "internalType": "address payable",
              "name": "creator",
              "type": "address"
            },
            {
              "internalType": "address payable",
              "name": "seller",
              "type": "address"
            },
            {
              "internalType": "address payable",
              "name": "owner",
              "type": "address"
            },
            {
              "internalType": "uint256",
              "name": "price",
              "type": "uint256"
            },
            {
              "internalType": "bool",
              "name": "sold",
              "type": "bool"
            },
            {
              "internalType": "bool",
              "name": "canceled",
              "type": "bool"
            }
          ],
          "internalType": "struct KBMarket.MarketItem[]",
          "name": "",
          "type": "tuple[]"
        }
      ],
      "stateMutability": "view",
      "type": "function"
    },
    {
      "inputs": [],
      "name": "fetchOwnedMarketItems",
      "outputs": [
        {
          "components": [
            {
              "internalType": "uint256",
              "name": "marketItemId",
              "type": "uint256"
            },
            {
              "internalType": "address",
              "name": "nftContractAddress",
              "type": "address"
            },
            {
              "internalType": "uint256",
              "name": "tokenId",
              "type": "uint256"
            },
            {
              "internalType": "address payable",
              "name": "creator",
              "type": "address"
            },
            {
              "internalType": "address payable",
              "name": "seller",
              "type": "address"
            },
            {
              "internalType": "address payable",
              "name": "owner",
              "type": "address"
            },
            {
              "internalType": "uint256",
              "name": "price",
              "type": "uint256"
            },
            {
              "internalType": "bool",
              "name": "sold",
              "type": "bool"
            },
            {
              "internalType": "bool",
              "name": "canceled",
              "type": "bool"
            }
          ],
          "internalType": "struct KBMarket.MarketItem[]",
          "name": "",
          "type": "tuple[]"
        }
      ],
      "stateMutability": "view",
      "type": "function"
    },
    {
      "inputs": [],
      "name": "fetchSellingMarketItems",
      "outputs": [
        {
          "components": [
            {
              "internalType": "uint256",
              "name": "marketItemId",
              "type": "uint256"
            },
            {
              "internalType": "address",
              "name": "nftContractAddress",
              "type": "address"
            },
            {
              "internalType": "uint256",
              "name": "tokenId",
              "type": "uint256"
            },
            {
              "internalType": "address payable",
              "name": "creator",
              "type": "address"
            },
            {
              "internalType": "address payable",
              "name": "seller",
              "type": "address"
            },
            {
              "internalType": "address payable",
              "name": "owner",
              "type": "address"
            },
            {
              "internalType": "uint256",
              "name": "price",
              "type": "uint256"
            },
            {
              "internalType": "bool",
              "name": "sold",
              "type": "bool"
            },
            {
              "internalType": "bool",
              "name": "canceled",
              "type": "bool"
            }
          ],
          "internalType": "struct KBMarket.MarketItem[]",
          "name": "",
          "type": "tuple[]"
        }
      ],
      "stateMutability": "view",
      "type": "function"
    },
    {
      "inputs": [
        {
          "internalType": "uint256",
          "name": "tokenId",
          "type": "uint256"
        }
      ],
      "name": "getLatestMarketItemByTokenId",
      "outputs": [
        {
          "components": [
            {
              "internalType": "uint256",
              "name": "marketItemId",
              "type": "uint256"
            },
            {
              "internalType": "address",
              "name": "nftContractAddress",
              "type": "address"
            },
            {
              "internalType": "uint256",
              "name": "tokenId",
              "type": "uint256"
            },
            {
              "internalType": "address payable",
              "name": "creator",
              "type": "address"
            },
            {
              "internalType": "address payable",
              "name": "seller",
              "type": "address"
            },
            {
              "internalType": "address payable",
              "name": "owner",
              "type": "address"
            },
            {
              "internalType": "uint256",
              "name": "price",
              "type": "uint256"
            },
            {
              "internalType": "bool",
              "name": "sold",
              "type": "bool"
            },
            {
              "internalType": "bool",
              "name": "canceled",
              "type": "bool"
            }
          ],
          "internalType": "struct KBMarket.MarketItem",
          "name": "",
          "type": "tuple"
        },
        {
          "internalType": "bool",
          "name": "",
          "type": "bool"
        }
      ],
      "stateMutability": "view",
      "type": "function"
    },
    {
      "inputs": [],
      "name": "getListingFee",
      "outputs": [
        {
          "internalType": "uint256",
          "name": "",
          "type": "uint256"
        }
      ],
      "stateMutability": "view",
      "type": "function"
    },
    {
      "inputs": [
        {
          "internalType": "address",
          "name": "nftContractAddress",
          "type": "address"
        },
        {
          "internalType": "address",
          "name": "erc20ContractAddress",
          "type": "address"
        },
        {
          "internalType": "uint256",
          "name": "feeAmount",
          "type": "uint256"
        },
        {
          "internalType": "uint256",
          "name": "tokenId",
          "type": "uint256"
        },
        {
          "internalType": "uint256",
          "name": "price",
          "type": "uint256"
        }
      ],
      "name": "makeMarketItem",
      "outputs": [
        {
          "internalType": "uint256",
          "name": "",
          "type": "uint256"
        }
      ],
      "stateMutability": "payable",
      "type": "function"
    }
  ],
  "bytecode": "0x6080604052669fdf42f6e4800060055534801561001b57600080fd5b506001600055600480546001600160a01b031916331790556115b7806100426000396000f3fe6080604052600436106100865760003560e01c8063a211836511610059578063a21183651461010e578063b3e3c42f14610123578063b8fe6abe14610136578063bd64dc9614610155578063cd90fdf41461016857600080fd5b80630203c8231461008b5780630e01c969146100b65780634cf2a069146100cb5780636f9b4920146100e0575b600080fd5b34801561009757600080fd5b506100a0610188565b6040516100ad91906113fe565b60405180910390f35b3480156100c257600080fd5b506100a06101b5565b3480156100d757600080fd5b506100a0610372565b3480156100ec57600080fd5b506101006100fb3660046112f7565b61039b565b6040516100ad9291906114bd565b61012161011c366004611172565b610487565b005b610121610131366004611202565b610680565b34801561014257600080fd5b506005545b6040519081526020016100ad565b6101476101633660046111b2565b610813565b34801561017457600080fd5b506100a061018336600461124d565b610c71565b60606101b06040518060400160405280600581526020016437bbb732b960d91b815250610c71565b905090565b606060006101c260015490565b905060006101cf60025490565b905060006101dc60035490565b90506000816101eb84866114f4565b6101f591906114f4565b905060008167ffffffffffffffff81111561022057634e487b7160e01b600052604160045260246000fd5b60405190808252806020026020018201604052801561025957816020015b61024661110a565b81526020019060019003908161023e5790505b5090506000805b868110156103665760006006816102788460016114dc565b815260208082019290925260409081016000208151610120810183528154815260018201546001600160a01b0390811694820194909452600282015492810192909252600381015483166060830152600481015483166080830152600581015490921660a08201819052600683015460c083015260079092015460ff808216151560e084015261010091829004161515908201529150156103195750610354565b8084848151811061033a57634e487b7160e01b600052603260045260246000fd5b60209081029190910101526103506001846114dc565b9250505b8061035e81611522565b915050610260565b50909695505050505050565b60606101b06040518060400160405280600681526020016539b2b63632b960d11b815250610c71565b6103a361110a565b6000806103af60015490565b9050805b8015610473576000818152600660208181526040928390208351610120810185528154815260018201546001600160a01b03908116938201939093526002820154948101859052600382015483166060820152600482015483166080820152600582015490921660a08301529182015460c082015260079091015460ff808216151560e084015261010091829004161515908201529086146104555750610461565b95600195509350505050565b8061046b8161150b565b9150506103b3565b5061047c61110a565b946000945092505050565b600260005414156104b35760405162461bcd60e51b81526004016104aa90611486565b60405180910390fd5b600260008181558281526006602081905260409182902090810154928101546005820180546001600160a01b031916339081179091556007909201805460ff1916600117905591516323b872dd60e01b81526001600160a01b038616916323b872dd916105279190309087906004016113da565b602060405180830381600087803b15801561054157600080fd5b505af1158015610555573d6000803e3d6000fd5b505050506040513d601f19601f82011682018060405250810190610579919061122d565b506040516323b872dd60e01b81526001600160a01b038616906323b872dd906105aa903090339086906004016113da565b600060405180830381600087803b1580156105c457600080fd5b505af11580156105d8573d6000803e3d6000fd5b505050506105ea600280546001019055565b6004805460055460405163a9059cbb60e01b81526001600160a01b0392831693810193909352602483015285169063a9059cbb90604401602060405180830381600087803b15801561063b57600080fd5b505af115801561064f573d6000803e3d6000fd5b505050506040513d601f19601f82011682018060405250810190610673919061122d565b5050600160005550505050565b600260005414156106a35760405162461bcd60e51b81526004016104aa90611486565b600260008181558281526006602052604090200154806107055760405162461bcd60e51b815260206004820152601860248201527f4d61726b6574206974656d2068617320746f206578697374000000000000000060448201526064016104aa565b6000828152600660205260409020600401546001600160a01b031633146107675760405162461bcd60e51b81526020600482015260166024820152752cb7ba9030b932903737ba103a34329039b2b63632b960511b60448201526064016104aa565b6040516323b872dd60e01b81526001600160a01b038416906323b872dd90610797903090339086906004016113da565b600060405180830381600087803b1580156107b157600080fd5b505af11580156107c5573d6000803e3d6000fd5b50505060008381526006602052604090206005810180546001600160a01b03191633179055600701805461ff00191661010017905550610809600380546001019055565b5050600160005550565b6000600260005414156108385760405162461bcd60e51b81526004016104aa90611486565b60026000558161088a5760405162461bcd60e51b815260206004820152601c60248201527f5072696365206d757374206265206174206c656173742031207765690000000060448201526064016104aa565b60055484146108e75760405162461bcd60e51b8152602060048201526024808201527f5072696365206d75737420626520657175616c20746f206c697374696e6720706044820152637269636560e01b60648201526084016104aa565b6108f5600180546001019055565b600061090060015490565b60405163867d339760e01b8152600481018690529091506000906001600160a01b0389169063867d33979060240160206040518083038186803b15801561094657600080fd5b505afa15801561095a573d6000803e3d6000fd5b505050506040513d601f19601f8201168201806040525081019061097e9190611156565b9050604051806101200160405280838152602001896001600160a01b03168152602001868152602001826001600160a01b03168152602001336001600160a01b0316815260200160006001600160a01b0316815260200185815260200160001515815260200160001515815250600660008481526020019081526020016000206000820151816000015560208201518160010160006101000a8154816001600160a01b0302191690836001600160a01b031602179055506040820151816002015560608201518160030160006101000a8154816001600160a01b0302191690836001600160a01b0316021790555060808201518160040160006101000a8154816001600160a01b0302191690836001600160a01b0316021790555060a08201518160050160006101000a8154816001600160a01b0302191690836001600160a01b0316021790555060c0820151816006015560e08201518160070160006101000a81548160ff0219169083151502179055506101008201518160070160016101000a81548160ff021916908315150217905550905050866001600160a01b03166323b872dd33306005546040518463ffffffff1660e01b8152600401610b46939291906113da565b602060405180830381600087803b158015610b6057600080fd5b505af1158015610b74573d6000803e3d6000fd5b505050506040513d601f19601f82011682018060405250810190610b98919061122d565b506040516323b872dd60e01b81526001600160a01b038916906323b872dd90610bc990339030908a906004016113da565b600060405180830381600087803b158015610be357600080fd5b505af1158015610bf7573d6000803e3d6000fd5b5050604080516001600160a01b0385811682523360208301526000828401819052606083018a90526080830181905260a08301529151899450918c16925085917fa3b15201f5409f14cce6233dc60972278c313ff3ddbdee57ff092c0e953135269181900360c00190a45060016000559695505050505050565b6060610c9b826040518060400160405280600681526020016539b2b63632b960d11b815250610ffb565b80610cc85750610cc8826040518060400160405280600581526020016437bbb732b960d91b815250610ffb565b610ce45760405162461bcd60e51b81526004016104aa90611441565b6000610cef60015490565b905060008060005b83811015610dea576000600681610d0f8460016114dc565b8152602080820192909252604090810160009081208251610120810184528154815260018201546001600160a01b0390811695820195909552600282015493810193909352600381015484166060840152600481015484166080840152600581015490931660a0830152600683015460c0830152600783015460ff808216151560e08501526101009182900416151590830152919250610daf9089611054565b90506001600160a01b0381163314610dc8575050610dd8565b610dd36001866114dc565b945050505b80610de281611522565b915050610cf7565b5060008267ffffffffffffffff811115610e1457634e487b7160e01b600052604160045260246000fd5b604051908082528060200260200182016040528015610e4d57816020015b610e3a61110a565b815260200190600190039081610e325790505b50905060005b84811015610ff1576000600681610e6b8460016114dc565b8152602080820192909252604090810160009081208251610120810184528154815260018201546001600160a01b0390811695820195909552600282015493810193909352600381015484166060840152600481015484166080840152600581015490931660a0830152600683015460c0830152600783015460ff808216151560e08501526101009182900416151590830152919250610f0b908a611054565b90506001600160a01b0381163314610f24575050610fdf565b60408051610120810182528354815260018401546001600160a01b039081166020830152600285015492820192909252600384015482166060820152600484015482166080820152600584015490911660a0820152600683015460c0820152600783015460ff808216151560e084015261010091829004161515908201528451859087908110610fc457634e487b7160e01b600052603260045260246000fd5b6020908102919091010152610fda6001866114dc565b945050505b80610fe981611522565b915050610e53565b5095945050505050565b60008160405160200161100e91906113a1565b604051602081830303815290604052805190602001208360405160200161103591906113a1565b6040516020818303038152906040528051906020012014905092915050565b600061107e826040518060400160405280600681526020016539b2b63632b960d11b815250610ffb565b806110ab57506110ab826040518060400160405280600581526020016437bbb732b960d91b815250610ffb565b6110c75760405162461bcd60e51b81526004016104aa90611441565b6110ef826040518060400160405280600681526020016539b2b63632b960d11b815250610ffb565b6110fd578260a00151611103565b82608001515b9392505050565b6040805161012081018252600080825260208201819052918101829052606081018290526080810182905260a0810182905260c0810182905260e0810182905261010081019190915290565b600060208284031215611167578081fd5b815161110381611569565b600080600060608486031215611186578182fd5b833561119181611569565b925060208401356111a181611569565b929592945050506040919091013590565b600080600080600060a086880312156111c9578081fd5b85356111d481611569565b945060208601356111e481611569565b94979496505050506040830135926060810135926080909101359150565b60008060408385031215611214578182fd5b823561121f81611569565b946020939093013593505050565b60006020828403121561123e578081fd5b81518015158114611103578182fd5b60006020828403121561125e578081fd5b813567ffffffffffffffff80821115611275578283fd5b818401915084601f830112611288578283fd5b81358181111561129a5761129a611553565b604051601f8201601f19908116603f011681019083821181831017156112c2576112c2611553565b816040528281528760208487010111156112da578586fd5b826020860160208301379182016020019490945295945050505050565b600060208284031215611308578081fd5b5035919050565b80518252602081015160018060a01b038082166020850152604083015160408501528060608401511660608501525050608081015161135960808401826001600160a01b03169052565b5060a081015161137460a08401826001600160a01b03169052565b5060c081015160c083015260e081015161139260e084018215159052565b50610100908101511515910152565b60008251815b818110156113c157602081860181015185830152016113a7565b818111156113cf5782828501525b509190910192915050565b6001600160a01b039384168152919092166020820152604081019190915260600190565b6020808252825182820181905260009190848201906040850190845b818110156103665761142d83855161130f565b92840192610120929092019160010161141a565b60208082526025908201527f506172616d65746572206d757374206265202773656c6c657227206f7220276f604082015264776e65722760d81b606082015260800190565b6020808252601f908201527f5265656e7472616e637947756172643a207265656e7472616e742063616c6c00604082015260600190565b61014081016114cc828561130f565b8215156101208301529392505050565b600082198211156114ef576114ef61153d565b500190565b6000828210156115065761150661153d565b500390565b60008161151a5761151a61153d565b506000190190565b60006000198214156115365761153661153d565b5060010190565b634e487b7160e01b600052601160045260246000fd5b634e487b7160e01b600052604160045260246000fd5b6001600160a01b038116811461157e57600080fd5b5056fea264697066735822122015973bc86476269dae6a97e8352003a4e8f5bae651dca6c22c483ac9a1dd4f0b64736f6c63430008040033",
  "linkReferences": {},
  "deployedLinkReferences": {}
}