{
  "_format": "hh-sol-artifact-1",
  "contractName": "NFTStaking",
  "sourceName": "contracts/NFTStaking.sol",
  "abi": [
    {
      "inputs": [
        {
          "internalType": "contract NFT",
          "name": "_nft",
          "type": "address"
        },
        {
          "internalType": "contract OurToken",
          "name": "_token",
          "type": "address"
        }
      ],
      "stateMutability": "nonpayable",
      "type": "constructor"
    },
    {
      "anonymous": false,
      "inputs": [
        {
          "indexed": false,
          "internalType": "address",
          "name": "owner",
          "type": "address"
        },
        {
          "indexed": false,
          "internalType": "uint256",
          "name": "amount",
          "type": "uint256"
        }
      ],
      "name": "Claimed",
      "type": "event"
    },
    {
      "anonymous": false,
      "inputs": [
        {
          "indexed": false,
          "internalType": "address",
          "name": "owner",
          "type": "address"
        },
        {
          "indexed": false,
          "internalType": "uint256",
          "name": "tokenId",
          "type": "uint256"
        },
        {
          "indexed": false,
          "internalType": "uint256",
          "name": "value",
          "type": "uint256"
        }
      ],
      "name": "NFTStaked",
      "type": "event"
    },
    {
      "anonymous": false,
      "inputs": [
        {
          "indexed": false,
          "internalType": "address",
          "name": "owner",
          "type": "address"
        },
        {
          "indexed": false,
          "internalType": "uint256",
          "name": "tokenId",
          "type": "uint256"
        },
        {
          "indexed": false,
          "internalType": "uint256",
          "name": "value",
          "type": "uint256"
        }
      ],
      "name": "NFTUnstaked",
      "type": "event"
    },
    {
      "anonymous": false,
      "inputs": [
        {
          "indexed": true,
          "internalType": "address",
          "name": "previousOwner",
          "type": "address"
        },
        {
          "indexed": true,
          "internalType": "address",
          "name": "newOwner",
          "type": "address"
        }
      ],
      "name": "OwnershipTransferred",
      "type": "event"
    },
    {
      "inputs": [
        {
          "internalType": "uint256[]",
          "name": "tokenIds",
          "type": "uint256[]"
        }
      ],
      "name": "claim",
      "outputs": [],
      "stateMutability": "nonpayable",
      "type": "function"
    },
    {
      "inputs": [
        {
          "internalType": "address",
          "name": "account",
          "type": "address"
        },
        {
          "internalType": "uint256[]",
          "name": "tokenIds",
          "type": "uint256[]"
        }
      ],
      "name": "claimForAddress",
      "outputs": [],
      "stateMutability": "nonpayable",
      "type": "function"
    },
    {
      "inputs": [
        {
          "internalType": "uint256[]",
          "name": "tokenIds",
          "type": "uint256[]"
        }
      ],
      "name": "earningInfo",
      "outputs": [
        {
          "internalType": "uint256[2]",
          "name": "info",
          "type": "uint256[2]"
        }
      ],
      "stateMutability": "view",
      "type": "function"
    },
    {
      "inputs": [
        {
          "internalType": "address",
          "name": "",
          "type": "address"
        },
        {
          "internalType": "address",
          "name": "from",
          "type": "address"
        },
        {
          "internalType": "uint256",
          "name": "",
          "type": "uint256"
        },
        {
          "internalType": "bytes",
          "name": "",
          "type": "bytes"
        }
      ],
      "name": "onERC721Received",
      "outputs": [
        {
          "internalType": "bytes4",
          "name": "",
          "type": "bytes4"
        }
      ],
      "stateMutability": "pure",
      "type": "function"
    },
    {
      "inputs": [],
      "name": "owner",
      "outputs": [
        {
          "internalType": "address",
          "name": "",
          "type": "address"
        }
      ],
      "stateMutability": "view",
      "type": "function"
    },
    {
      "inputs": [],
      "name": "renounceOwnership",
      "outputs": [],
      "stateMutability": "nonpayable",
      "type": "function"
    },
    {
      "inputs": [
        {
          "internalType": "uint256[]",
          "name": "tokenIds",
          "type": "uint256[]"
        }
      ],
      "name": "stake",
      "outputs": [],
      "stateMutability": "nonpayable",
      "type": "function"
    },
    {
      "inputs": [],
      "name": "totalStaked",
      "outputs": [
        {
          "internalType": "uint256",
          "name": "",
          "type": "uint256"
        }
      ],
      "stateMutability": "view",
      "type": "function"
    },
    {
      "inputs": [
        {
          "internalType": "address",
          "name": "newOwner",
          "type": "address"
        }
      ],
      "name": "transferOwnership",
      "outputs": [],
      "stateMutability": "nonpayable",
      "type": "function"
    },
    {
      "inputs": [
        {
          "internalType": "uint256[]",
          "name": "tokenIds",
          "type": "uint256[]"
        }
      ],
      "name": "unstake",
      "outputs": [],
      "stateMutability": "nonpayable",
      "type": "function"
    },
    {
      "inputs": [
        {
          "internalType": "uint256",
          "name": "",
          "type": "uint256"
        }
      ],
      "name": "vault",
      "outputs": [
        {
          "internalType": "uint24",
          "name": "tokenId",
          "type": "uint24"
        },
        {
          "internalType": "uint48",
          "name": "timestamp",
          "type": "uint48"
        },
        {
          "internalType": "address",
          "name": "owner",
          "type": "address"
        }
      ],
      "stateMutability": "view",
      "type": "function"
    }
  ],
  "bytecode": "0x608060405234801561001057600080fd5b506040516110b63803806110b683398101604081905261002f916100b9565b61003833610069565b600280546001600160a01b039384166001600160a01b0319918216179091556003805492909316911617905561010a565b600080546001600160a01b038381166001600160a01b0319831681178455604051919092169283917f8be0079c531659141344cd1fd0a4f28419497f9722a3daafe3b4186f6b6457e09190a35050565b600080604083850312156100cb578182fd5b82516100d6816100f2565b60208401519092506100e7816100f2565b809150509250929050565b6001600160a01b038116811461010757600080fd5b50565b610f9d806101196000396000f3fe608060405234801561001057600080fd5b50600436106100a95760003560e01c8063817b1cd211610071578063817b1cd21461012f57806381a36fb6146101465780638da5cb5b146101be578063c36be357146101d9578063e449f341146101ec578063f2fde38b146101ff57600080fd5b80630fbf0a93146100ae578063150b7a02146100c35780633562b086146100f45780636ba4c13814610114578063715018a614610127575b600080fd5b6100c16100bc366004610e2a565b610212565b005b6100d66100d1366004610d3d565b6104e1565b6040516001600160e01b031990911681526020015b60405180910390f35b610107610102366004610e2a565b610557565b6040516100eb9190610e82565b6100c1610122366004610e2a565b610658565b6100c1610669565b61013860015481565b6040519081526020016100eb565b61018d610154366004610e6a565b60046020526000908152604090205462ffffff8116906301000000810465ffffffffffff1690600160481b90046001600160a01b031683565b6040805162ffffff909416845265ffffffffffff90921660208401526001600160a01b0316908201526060016100eb565b6000546040516001600160a01b0390911681526020016100eb565b6100c16101e7366004610dd7565b6106cf565b6100c16101fa366004610e2a565b6106e1565b6100c161020d366004610cfe565b6106ee565b600082829050600160008282546102299190610eb3565b90915550600090505b828110156104db5783838281811061025a57634e487b7160e01b600052603260045260246000fd5b6002546040516331a9108f60e11b8152602092909202939093013560048201819052945033926001600160a01b03169150636352211e9060240160206040518083038186803b1580156102ac57600080fd5b505afa1580156102c0573d6000803e3d6000fd5b505050506040513d601f19601f820116820180604052508101906102e49190610d21565b6001600160a01b0316146103305760405162461bcd60e51b815260206004820152600e60248201526d3737ba103cb7bab9103a37b5b2b760911b60448201526064015b60405180910390fd5b60008281526004602052604090205462ffffff16156103825760405162461bcd60e51b815260206004820152600e60248201526d185b1c9958591e481cdd185ad95960921b6044820152606401610327565b6002546040516323b872dd60e01b8152336004820152306024820152604481018490526001600160a01b03909116906323b872dd90606401600060405180830381600087803b1580156103d457600080fd5b505af11580156103e8573d6000803e3d6000fd5b50506040805133815260208101869052428183015290517f36b3725f1783bad4ff05b7f4c077c3aa68eeb23a4d054ba189db4d01ac278d399350908190036060019150a16040805160608101825262ffffff808516825265ffffffffffff4281166020808501918252338587019081526000898152600490925295902093518454915195516001600160a01b0316600160481b027fffffff0000000000000000000000000000000000000000ffffffffffffffffff9690931663010000000268ffffffffffffffffff199092169316929092179190911792909216919091179055806104d381610f21565b915050610232565b50505050565b60006001600160a01b038516156105455760405162461bcd60e51b815260206004820152602260248201527f43616e6e6f742073656e64206e66747320746f205661756c74206469726563746044820152616c7960f01b6064820152608401610327565b50630a85bd0160e11b95945050505050565b61055f610c96565b600080805260046020908152604080516060810182527f17ef568e3e12ab5b9c7254a8d58478811de00f9e6eb34345acd53bf8fd09d3ec5462ffffff811682526301000000810465ffffffffffff16938201849052600160481b90046001600160a01b0316918101919091528291829190620151806105de8242610f0a565b6105f29069152d02c7e14af6800000610eeb565b6105fc9190610ecb565b6106069084610eb3565b925060006201518061062086670de0b6b3a7640000610eeb565b61062a9190610ecb565b9050610639620186a082610ecb565b6040805180820190915294855260208501525091979650505050505050565b61066533838360006107b9565b5050565b6000546001600160a01b031633146106c35760405162461bcd60e51b815260206004820181905260248201527f4f776e61626c653a2063616c6c6572206973206e6f7420746865206f776e65726044820152606401610327565b6106cd6000610a78565b565b6106dc83838360006107b9565b505050565b61066533838360016107b9565b6000546001600160a01b031633146107485760405162461bcd60e51b815260206004820181905260248201527f4f776e61626c653a2063616c6c6572206973206e6f7420746865206f776e65726044820152606401610327565b6001600160a01b0381166107ad5760405162461bcd60e51b815260206004820152602660248201527f4f776e61626c653a206e6577206f776e657220697320746865207a65726f206160448201526564647265737360d01b6064820152608401610327565b6107b681610a78565b50565b600080805b848110156109a2578585828181106107e657634e487b7160e01b600052603260045260246000fd5b602090810292909201356000818152600484526040908190208151606081018352905462ffffff8116825265ffffffffffff6301000000820416958201959095526001600160a01b03600160481b909504851691810182905291965090928a161490506108845760405162461bcd60e51b815260206004820152600c60248201526b3737ba1030b71037bbb732b960a11b6044820152606401610327565b602081015165ffffffffffff166201518061089f8242610f0a565b6108b39069152d02c7e14af6800000610eeb565b6108bd9190610ecb565b6108c79085610eb3565b935060405180606001604052808662ffffff1681526020014265ffffffffffff1681526020018a6001600160a01b03168152506004600087815260200190815260200160002060008201518160000160006101000a81548162ffffff021916908362ffffff16021790555060208201518160000160036101000a81548165ffffffffffff021916908365ffffffffffff16021790555060408201518160000160096101000a8154816001600160a01b0302191690836001600160a01b031602179055509050505050808061099a90610f21565b9150506107be565b508015610a1d576109b4600a82610ecb565b6003546040516340c10f1960e01b81526001600160a01b038981166004830152602482018490529293509116906340c10f1990604401600060405180830381600087803b158015610a0457600080fd5b505af1158015610a18573d6000803e3d6000fd5b505050505b8215610a2e57610a2e868686610ac8565b604080516001600160a01b0388168152602081018390527fd8138f8a3f377c5259ca548e70e4c2de94f129f5a11036a15b69513cba2b426a910160405180910390a1505050505050565b600080546001600160a01b038381166001600160a01b0319831681178455604051919092169283917f8be0079c531659141344cd1fd0a4f28419497f9722a3daafe3b4186f6b6457e09190a35050565b60008282905060016000828254610adf9190610f0a565b90915550600090505b82811015610c8f57838382818110610b1057634e487b7160e01b600052603260045260246000fd5b602090810292909201356000818152600484526040908190208151606081018352905462ffffff811682526301000000810465ffffffffffff1695820195909552600160481b9094046001600160a01b031690840181905290945033149050610baa5760405162461bcd60e51b815260206004820152600c60248201526b3737ba1030b71037bbb732b960a11b6044820152606401610327565b60008381526004602090815260409182902080546001600160e81b031916905581516001600160a01b0389168152908101859052428183015290517fc486b9458a8637650d84d262414833a5a457bc91ae86b7da110386c8c3fa255b9181900360600190a16002546040516323b872dd60e01b81523060048201526001600160a01b03888116602483015260448201869052909116906323b872dd90606401600060405180830381600087803b158015610c6357600080fd5b505af1158015610c77573d6000803e3d6000fd5b50505050508080610c8790610f21565b915050610ae8565b5050505050565b60405180604001604052806002906020820280368337509192915050565b60008083601f840112610cc5578182fd5b50813567ffffffffffffffff811115610cdc578182fd5b6020830191508360208260051b8501011115610cf757600080fd5b9250929050565b600060208284031215610d0f578081fd5b8135610d1a81610f52565b9392505050565b600060208284031215610d32578081fd5b8151610d1a81610f52565b600080600080600060808688031215610d54578081fd5b8535610d5f81610f52565b94506020860135610d6f81610f52565b935060408601359250606086013567ffffffffffffffff80821115610d92578283fd5b818801915088601f830112610da5578283fd5b813581811115610db3578384fd5b896020828501011115610dc4578384fd5b9699959850939650602001949392505050565b600080600060408486031215610deb578283fd5b8335610df681610f52565b9250602084013567ffffffffffffffff811115610e11578283fd5b610e1d86828701610cb4565b9497909650939450505050565b60008060208385031215610e3c578182fd5b823567ffffffffffffffff811115610e52578283fd5b610e5e85828601610cb4565b90969095509350505050565b600060208284031215610e7b578081fd5b5035919050565b60408101818360005b6002811015610eaa578151835260209283019290910190600101610e8b565b50505092915050565b60008219821115610ec657610ec6610f3c565b500190565b600082610ee657634e487b7160e01b81526012600452602481fd5b500490565b6000816000190483118215151615610f0557610f05610f3c565b500290565b600082821015610f1c57610f1c610f3c565b500390565b6000600019821415610f3557610f35610f3c565b5060010190565b634e487b7160e01b600052601160045260246000fd5b6001600160a01b03811681146107b657600080fdfea26469706673582212206054054ebe5fe56b760b560f8ece5d03436edc4fa14afe2006803c6dbdf2545164736f6c63430008040033",
  "linkReferences": {},
  "deployedLinkReferences": {}
}